{"abi":[{"type":"constructor","inputs":[{"name":"hubName","type":"string","internalType":"string"},{"name":"scoreKeeperAddress","type":"address","internalType":"address"},{"name":"railcarAddress","type":"address","internalType":"address"},{"name":"gameStartHub","type":"string","internalType":"string"},{"name":"hubRegistryAddress","type":"address","internalType":"address"},{"name":"hubAdmin","type":"address","internalType":"address"}],"stateMutability":"nonpayable"},{"type":"function","name":"DEFAULT_ADMIN_ROLE","inputs":[],"outputs":[{"name":"","type":"bytes32","internalType":"bytes32"}],"stateMutability":"view"},{"type":"function","name":"REGISTRY","inputs":[],"outputs":[{"name":"","type":"address","internalType":"contract HubRegistry"}],"stateMutability":"view"},{"type":"function","name":"RELAYER_ROLE","inputs":[],"outputs":[{"name":"","type":"bytes32","internalType":"bytes32"}],"stateMutability":"view"},{"type":"function","name":"addHubConnections","inputs":[{"name":"outputs","type":"uint256[]","internalType":"uint256[]"}],"outputs":[],"stateMutability":"nonpayable"},{"type":"function","name":"addInput","inputs":[],"outputs":[],"stateMutability":"nonpayable"},{"type":"function","name":"addRelayer","inputs":[{"name":"relayerAddress","type":"address","internalType":"address"}],"outputs":[],"stateMutability":"nonpayable"},{"type":"function","name":"allowAllInputs","inputs":[],"outputs":[{"name":"","type":"bool","internalType":"bool"}],"stateMutability":"view"},{"type":"function","name":"canStart","inputs":[],"outputs":[{"name":"","type":"bool","internalType":"bool"}],"stateMutability":"view"},{"type":"function","name":"currentGame","inputs":[],"outputs":[{"name":"","type":"uint256","internalType":"uint256"}],"stateMutability":"view"},{"type":"function","name":"enterRailcar","inputs":[{"name":"railcarID","type":"uint256","internalType":"uint256"}],"outputs":[],"stateMutability":"nonpayable"},{"type":"function","name":"enterUser","inputs":[{"name":"userAddress","type":"address","internalType":"address"}],"outputs":[],"stateMutability":"nonpayable"},{"type":"function","name":"entryFee","inputs":[],"outputs":[{"name":"","type":"uint256","internalType":"uint256"}],"stateMutability":"view"},{"type":"function","name":"gameHub","inputs":[],"outputs":[{"name":"","type":"string","internalType":"string"}],"stateMutability":"view"},{"type":"function","name":"getRoleAdmin","inputs":[{"name":"role","type":"bytes32","internalType":"bytes32"}],"outputs":[{"name":"","type":"bytes32","internalType":"bytes32"}],"stateMutability":"view"},{"type":"function","name":"getRoleMember","inputs":[{"name":"role","type":"bytes32","internalType":"bytes32"},{"name":"index","type":"uint256","internalType":"uint256"}],"outputs":[{"name":"","type":"address","internalType":"address"}],"stateMutability":"view"},{"type":"function","name":"getRoleMemberCount","inputs":[{"name":"role","type":"bytes32","internalType":"bytes32"}],"outputs":[{"name":"","type":"uint256","internalType":"uint256"}],"stateMutability":"view"},{"type":"function","name":"getRoleMembers","inputs":[{"name":"role","type":"bytes32","internalType":"bytes32"}],"outputs":[{"name":"","type":"address[]","internalType":"address[]"}],"stateMutability":"view"},{"type":"function","name":"grantRole","inputs":[{"name":"role","type":"bytes32","internalType":"bytes32"},{"name":"account","type":"address","internalType":"address"}],"outputs":[],"stateMutability":"nonpayable"},{"type":"function","name":"hasRole","inputs":[{"name":"role","type":"bytes32","internalType":"bytes32"},{"name":"account","type":"address","internalType":"address"}],"outputs":[{"name":"","type":"bool","internalType":"bool"}],"stateMutability":"view"},{"type":"function","name":"hubInputs","inputs":[],"outputs":[{"name":"inputs","type":"uint256[]","internalType":"uint256[]"}],"stateMutability":"view"},{"type":"function","name":"hubOutputs","inputs":[],"outputs":[{"name":"outputs","type":"uint256[]","internalType":"uint256[]"}],"stateMutability":"view"},{"type":"function","name":"inputActive","inputs":[{"name":"","type":"uint256","internalType":"uint256"}],"outputs":[{"name":"","type":"bool","internalType":"bool"}],"stateMutability":"view"},{"type":"function","name":"inputAllowed","inputs":[{"name":"","type":"uint256","internalType":"uint256"}],"outputs":[{"name":"","type":"bool","internalType":"bool"}],"stateMutability":"view"},{"type":"function","name":"joinCountdownStartTime","inputs":[],"outputs":[{"name":"","type":"uint256","internalType":"uint256"}],"stateMutability":"view"},{"type":"function","name":"joinGame","inputs":[],"outputs":[],"stateMutability":"payable"},{"type":"function","name":"joinGameFor","inputs":[{"name":"player","type":"address","internalType":"address"}],"outputs":[],"stateMutability":"payable"},{"type":"function","name":"playerCount","inputs":[{"name":"","type":"uint256","internalType":"uint256"}],"outputs":[{"name":"","type":"uint256","internalType":"uint256"}],"stateMutability":"view"},{"type":"function","name":"playerLimit","inputs":[],"outputs":[{"name":"","type":"uint256","internalType":"uint256"}],"stateMutability":"view"},{"type":"function","name":"protocolFeeBps","inputs":[],"outputs":[{"name":"","type":"uint256","internalType":"uint256"}],"stateMutability":"view"},{"type":"function","name":"railcarID","inputs":[{"name":"","type":"uint256","internalType":"uint256"}],"outputs":[{"name":"","type":"uint256","internalType":"uint256"}],"stateMutability":"view"},{"type":"function","name":"removeHubConnectionsTo","inputs":[{"name":"connectedHubIDs","type":"uint256[]","internalType":"uint256[]"}],"outputs":[],"stateMutability":"nonpayable"},{"type":"function","name":"removeInput","inputs":[],"outputs":[],"stateMutability":"nonpayable"},{"type":"function","name":"renounceRole","inputs":[{"name":"role","type":"bytes32","internalType":"bytes32"},{"name":"callerConfirmation","type":"address","internalType":"address"}],"outputs":[],"stateMutability":"nonpayable"},{"type":"function","name":"revokeRole","inputs":[{"name":"role","type":"bytes32","internalType":"bytes32"},{"name":"account","type":"address","internalType":"address"}],"outputs":[],"stateMutability":"nonpayable"},{"type":"function","name":"setAllowAllInputs","inputs":[{"name":"allowAll","type":"bool","internalType":"bool"}],"outputs":[],"stateMutability":"nonpayable"},{"type":"function","name":"setEntryFee","inputs":[{"name":"newEntryFee","type":"uint256","internalType":"uint256"}],"outputs":[],"stateMutability":"nonpayable"},{"type":"function","name":"setGameControllerAddress","inputs":[{"name":"gameControllerAddress","type":"address","internalType":"address"}],"outputs":[],"stateMutability":"nonpayable"},{"type":"function","name":"setInputAllowed","inputs":[{"name":"hubID","type":"uint256","internalType":"uint256"},{"name":"allowed","type":"bool","internalType":"bool"}],"outputs":[],"stateMutability":"nonpayable"},{"type":"function","name":"setPlayerLimit","inputs":[{"name":"limit","type":"uint256","internalType":"uint256"}],"outputs":[],"stateMutability":"nonpayable"},{"type":"function","name":"setProtocolFeeBps","inputs":[{"name":"newFeeBps","type":"uint256","internalType":"uint256"}],"outputs":[],"stateMutability":"nonpayable"},{"type":"function","name":"setTimeLimitToJoin","inputs":[{"name":"timeInSeconds","type":"uint256","internalType":"uint256"}],"outputs":[],"stateMutability":"nonpayable"},{"type":"function","name":"startGame","inputs":[],"outputs":[],"stateMutability":"nonpayable"},{"type":"function","name":"supportsInterface","inputs":[{"name":"interfaceId","type":"bytes4","internalType":"bytes4"}],"outputs":[{"name":"","type":"bool","internalType":"bool"}],"stateMutability":"view"},{"type":"function","name":"timeLimitToJoin","inputs":[],"outputs":[{"name":"","type":"uint256","internalType":"uint256"}],"stateMutability":"view"},{"type":"function","name":"totalProtocolFees","inputs":[],"outputs":[{"name":"","type":"uint256","internalType":"uint256"}],"stateMutability":"view"},{"type":"function","name":"withdraw","inputs":[{"name":"withdrawAddress","type":"address","internalType":"address"}],"outputs":[],"stateMutability":"nonpayable"},{"type":"event","name":"AllowAllInputsChanged","inputs":[{"name":"allowed","type":"bool","indexed":false,"internalType":"bool"}],"anonymous":false},{"type":"event","name":"GameStarted","inputs":[{"name":"gameID","type":"uint256","indexed":true,"internalType":"uint256"},{"name":"playerCount","type":"uint256","indexed":false,"internalType":"uint256"}],"anonymous":false},{"type":"event","name":"InputAdded","inputs":[{"name":"hubId","type":"uint256","indexed":true,"internalType":"uint256"}],"anonymous":false},{"type":"event","name":"InputAllowedChanged","inputs":[{"name":"hubId","type":"uint256","indexed":true,"internalType":"uint256"},{"name":"allowed","type":"bool","indexed":false,"internalType":"bool"}],"anonymous":false},{"type":"event","name":"InputRemoved","inputs":[{"name":"hubId","type":"uint256","indexed":true,"internalType":"uint256"}],"anonymous":false},{"type":"event","name":"OutputAdded","inputs":[{"name":"hubId","type":"uint256","indexed":true,"internalType":"uint256"}],"anonymous":false},{"type":"event","name":"OutputRemoved","inputs":[{"name":"hubId","type":"uint256","indexed":true,"internalType":"uint256"}],"anonymous":false},{"type":"event","name":"PlayerJoined","inputs":[{"name":"gameID","type":"uint256","indexed":true,"internalType":"uint256"},{"name":"player","type":"address","indexed":true,"internalType":"address"},{"name":"playerCount","type":"uint256","indexed":false,"internalType":"uint256"}],"anonymous":false},{"type":"event","name":"ProtocolFeeCollected","inputs":[{"name":"gameID","type":"uint256","indexed":true,"internalType":"uint256"},{"name":"amount","type":"uint256","indexed":false,"internalType":"uint256"}],"anonymous":false},{"type":"event","name":"RailcarEntered","inputs":[{"name":"railcarId","type":"uint256","indexed":true,"internalType":"uint256"},{"name":"fromHubId","type":"uint256","indexed":true,"internalType":"uint256"}],"anonymous":false},{"type":"event","name":"RailcarExited","inputs":[{"name":"railcarId","type":"uint256","indexed":true,"internalType":"uint256"},{"name":"toHubId","type":"uint256","indexed":true,"internalType":"uint256"}],"anonymous":false},{"type":"event","name":"RoleAdminChanged","inputs":[{"name":"role","type":"bytes32","indexed":true,"internalType":"bytes32"},{"name":"previousAdminRole","type":"bytes32","indexed":true,"internalType":"bytes32"},{"name":"newAdminRole","type":"bytes32","indexed":true,"internalType":"bytes32"}],"anonymous":false},{"type":"event","name":"RoleGranted","inputs":[{"name":"role","type":"bytes32","indexed":true,"internalType":"bytes32"},{"name":"account","type":"address","indexed":true,"internalType":"address"},{"name":"sender","type":"address","indexed":true,"internalType":"address"}],"anonymous":false},{"type":"event","name":"RoleRevoked","inputs":[{"name":"role","type":"bytes32","indexed":true,"internalType":"bytes32"},{"name":"account","type":"address","indexed":true,"internalType":"address"},{"name":"sender","type":"address","indexed":true,"internalType":"address"}],"anonymous":false},{"type":"event","name":"UserEntered","inputs":[{"name":"user","type":"address","indexed":true,"internalType":"address"},{"name":"fromHubId","type":"uint256","indexed":true,"internalType":"uint256"}],"anonymous":false},{"type":"event","name":"UserExited","inputs":[{"name":"user","type":"address","indexed":true,"internalType":"address"},{"name":"toHubId","type":"uint256","indexed":true,"internalType":"uint256"}],"anonymous":false},{"type":"error","name":"AccessControlBadConfirmation","inputs":[]},{"type":"error","name":"AccessControlUnauthorizedAccount","inputs":[{"name":"account","type":"address","internalType":"address"},{"name":"neededRole","type":"bytes32","internalType":"bytes32"}]},{"type":"error","name":"HubNotAuthorized","inputs":[]},{"type":"error","name":"InvalidHubIndices","inputs":[]},{"type":"error","name":"OriginHubNotInput","inputs":[]},{"type":"error","name":"ReentrancyGuardReentrantCall","inputs":[]},{"type":"error","name":"RegistrationFailed","inputs":[]}],"bytecode":{"object":"0x608080604052346104d9575f6129f0803803809161001d8286610527565b8439820160c0838203126104d95782516001600160401b0381116104d9578161004791850161055e565b610053602085016105b3565b90610060604086016105b3565b606086015190936001600160401b0382116104d95761008091870161055e565b9461009960a0610092608084016105b3565b92016105b3565b600160025560078054610100600160a81b031916600893841b610100600160a81b031617908190556040516399fd8ed560e01b815230600482015291921c6001600160a01b031690602081602481855afa9081156104ce575f916104ec575b50156104dd57803b156104d9575f8091600460405180948193630354740160e31b83525af180156104ce576104b9575b50610132816105c7565b610493575b507fe2b7fb3b832174769106daebcfd6d1970523240dda11281102db9363b83b0dc4600890815561012c600e556014600f5560c8601355600754604051635c9ef5e960e11b815230600482015292911c6001600160a01b031690602083602481855afa928315610488578693610454575b50813b156104505760206064928792836040519586809581946303baa81760e41b8352604060048401528051918291826044860152018484015e83838284010152896024830152601f801991011681010301925af180156104455790859161042c575b5052600360205260408320805460ff19166001179055600980546001600160a01b03199081166001600160a01b0393841617909155600a80549091169290911691909117905561025a336105c7565b610411575b600d805460ff1916600117905581516001600160401b0381116103fd57601154600181811c911680156103f3575b60208210146103df57601f8111610370575b50602092601f821160011461030f57928293829392610304575b50508160011b915f199060031b1c1916176011555b63bbf81e004201908142116102f0575060105560405161230f90816106c18239f35b634e487b7160e01b81526011600452602490fd5b015190505f806102b9565b601f198216936011845280842091845b8681106103585750836001959610610340575b505050811b016011556102ce565b01515f1960f88460031b161c191690555f8080610332565b9192602060018192868501518155019401920161031f565b8181111561029f5760118352601f820160051c7f31ecc21a745e3968a04e9570e4425bc18fa8019c68028196b546d1669c200c68602084106103d7575b81601f9101920160051c0390835b8281106103c957505061029f565b6001908581840155016103bb565b8491506103ad565b634e487b7160e01b83526022600452602483fd5b90607f169061028d565b634e487b7160e01b82526041600452602482fd5b80805260016020526104263360408320610650565b5061025f565b8161043691610527565b61044157835f61020b565b8380fd5b6040513d87823e3d90fd5b8580fd5b9092506020813d602011610480575b8161047060209383610527565b810103126104505751915f6101a8565b3d9150610463565b6040513d88823e3d90fd5b8480526001602052604085206104b2916001600160a01b031690610650565b505f610137565b6104c69195505f90610527565b5f935f610128565b6040513d5f823e3d90fd5b5f80fd5b6365bcbc0960e01b5f5260045ffd5b90506020813d60201161051f575b8161050760209383610527565b810103126104d9575180151581036104d9575f6100f8565b3d91506104fa565b601f909101601f19168101906001600160401b0382119082101761054a57604052565b634e487b7160e01b5f52604160045260245ffd5b81601f820112156104d9578051906001600160401b03821161054a5760405192610592601f8401601f191660200185610527565b828452602083830101116104d957815f9260208093018386015e8301015290565b51906001600160a01b03821682036104d957565b6001600160a01b0381165f9081525f5160206129d05f395f51905f52602052604090205460ff1661064b576001600160a01b03165f8181525f5160206129d05f395f51905f5260205260408120805460ff191660011790553391907f2f8788117e7eff1d82e926ec794901d17c78024a50270940304540a733656f0d8180a4600190565b505f90565b6001810190825f528160205260405f2054155f146106b95780546801000000000000000081101561054a57600181018083558110156106a5578390825f5260205f20015554915f5260205260405f2055600190565b634e487b7160e01b5f52603260045260245ffd5b5050505f9056fe6080806040526004361015610012575f80fd5b5f3560e01c90816301ffc9a7146113dd5750806306433b1b146113b1578063072ea61c1461139457806307a4f85d1461136557806313f587bf146113365780631caedad51461130f578063222aa97a146111f7578063248a9ca3146111c557806324b1ebb9146110735780632566c9ea146110495780632a88c44214610fd55780632f2ff15d14610fa157806332f5910b14610e2e57806335659fb814610e1157806336568abe14610dcd5780633f588f3e14610c7f578063502db6e414610c1d57806351cff8d914610b5857806360b663bb14610b3b5780636a820f8a146109255780636f5f3bb61461090857806371688c981461088857806389dfb5fb146108455780638a52c6e3146108245780639010d07c146107df57806391d1485414610797578063926d7d7f1461077a5780639d81e5281461075d578063a217fddf14610743578063a3246ad314610694578063bf15e64c14610673578063c0417e581461060e578063ca15c873146105e4578063d1d27cf9146105b9578063d4f77b1c146105a5578063d547741f14610568578063d5788f711461053e578063d65ab5f214610526578063dd39f00d146104b1578063eb770d0c14610490578063ebdecb6b14610308578063ec309038146102e4578063f509485214610276578063f526e39a14610259578063f8b59b4e146102375763f8bb7ec214610216575f80fd5b34610233575f366003190112610233576020600f54604051908152f35b5f80fd5b34610233575f36600319011261023357602060ff600754166040519015158152f35b34610233575f366003190112610233576020601454604051908152f35b34610233576040366003190112610233576004356024358015158091036102335760207f3faee682d6f6429c1961e6f55e3a6b50b4eaa8ef626879ca14ea787fa52c13fa916102c36118ff565b835f526003825260405f2060ff1981541660ff8316179055604051908152a2005b34610233575f3660031901126102335760206102fe61207e565b6040519015158152f35b346102335760203660031901126102335761032161144a565b6007549060ff82161580610410575b61040157604051635c9ef5e960e11b8152336004820152916020908390602490829060081c6001600160a01b03165afa9182156103f6575f926103c2575b50815f52600460205260ff60405f205416156103b3576001600160a01b03167fb662f0beeb38e2aa790755858e25ee4edac93ec1ed278a0d1d28f86721a646b35f80a3005b636962ec8d60e11b5f5260045ffd5b9091506020813d6020116103ee575b816103de60209383611503565b810103126102335751908261036e565b3d91506103d1565b6040513d5f823e3d90fd5b637562451360e11b5f5260045ffd5b50604051635c9ef5e960e11b8152336004820152602081602481600887901c6001600160a01b03165afa9081156103f6575f9161045e575b505f52600360205260ff60405f20541615610330565b90506020813d602011610488575b8161047960209383611503565b81010312610233575183610448565b3d915061046c565b34610233576020366003190112610233576104a96118ff565b600435601255005b34610233576020366003190112610233576104ca61144a565b6104d26118ff565b600854906104f36104ee835f525f602052600160405f20015490565b61194e565b6104fd81836120cc565b61050357005b5f91825260016020526040909120610524916001600160a01b0316906121d4565b005b34610233575f366003190112610233576105246116e9565b34610233576020366003190112610233576004355f526016602052602060405f2054604051908152f35b3461023357604036600319011261023357610524600435610587611460565b906105a06104ee825f525f602052600160405f20015490565b612044565b5f3660031901126102335761052433611994565b34610233575f366003190112610233576105e06105d4611525565b60405191829182611607565b0390f35b34610233576020366003190112610233576004355f526001602052602060405f2054604051908152f35b346102335760203660031901126102335760043561062a6118ff565b6103e8811161063857601355005b60405162461bcd60e51b815260206004820152601360248201527204665652065786365656473203130252063617606c1b6044820152606490fd5b346102335760203660031901126102335761068c6118ff565b600435600f55005b34610233576020366003190112610233576004355f52600160205260405f20604051806020835491828152019081935f5260205f20905f5b81811061072d57505050816106e2910382611503565b604051918291602083019060208452518091526040830191905f5b81811061070b575050500390f35b82516001600160a01b03168452859450602093840193909201916001016106fd565b82548452602090930192600192830192016106cc565b34610233575f3660031901126102335760206040515f8152f35b34610233575f366003190112610233576020601054604051908152f35b34610233575f366003190112610233576020600854604051908152f35b34610233576040366003190112610233576107b0611460565b6004355f525f60205260405f209060018060a01b03165f52602052602060ff60405f2054166040519015158152f35b34610233576040366003190112610233576004355f526001602052602061080b60243560405f20611674565b905460405160039290921b1c6001600160a01b03168152f35b346102335760203660031901126102335761083d6118ff565b600435600e55005b346102335760203660031901126102335761085e61144a565b6108666118ff565b600b80546001600160a01b0319166001600160a01b0392909216919091179055005b34610233575f3660031901126102335760405180602060065491828152019060065f527ff652222313e28459528d920b65115c16c04f3efc82aaedc97be59f3f377c0d3f905f5b8181106108f2576105e0856108e681870382611503565b604051918291826114ca565b82548452602090930192600192830192016108cf565b34610233575f366003190112610233576020600e54604051908152f35b346102335761093336611476565b61093b6118ff565b60075460019060081c6001600160a01b03165f5b838110610ac5575b505015610ab6575f5b81811061096957005b60075460081c6001600160a01b03166020610985838587611631565b35602460405180948193630ea8b30560e11b835260048301525afa9081156103f6575f91610a88575b506001600160a01b0316803b15610233575f80916004604051809481936332f5910b60e01b83525af180156103f657610a78575b506109ee818385611631565b359060065491600160401b831015610a6457610a2c610a168460018096016006556006611674565b819391549060031b91821b915f19901b19161790565b9055610a39818486611631565b357fb08d416f82272babf9e7dfbdeae1159d6062f423916901d0378d1f002f0520c05f80a201610960565b634e487b7160e01b5f52604160045260245ffd5b5f610a8291611503565b836109e2565b610aa9915060203d8111610aaf575b610aa18183611503565b810190611655565b846109ae565b503d610a97565b630785d97560e21b5f5260045ffd5b610ad0818587611631565b604051630ea8b30560e11b815290356004820152602081602481865afa9081156103f6575f91610b1d575b506001600160a01b031615610b125760010161094f565b5050505f8380610957565b610b35915060203d8111610aaf57610aa18183611503565b86610afb565b34610233575f366003190112610233576020600c54604051908152f35b3461023357602036600319011261023357610b7161144a565b610b796118ff565b601454908115610be2575f6014819055918291829182916001600160a01b03165af1610ba3611689565b5015610bab57005b60405162461bcd60e51b815260206004820152600f60248201526e15da5d1a191c985dc819985a5b1959608a1b6044820152606490fd5b60405162461bcd60e51b81526020600482015260136024820152724e6f206665657320746f20776974686472617760681b6044820152606490fd5b34610233576020366003190112610233576004358015158091036102335760207fc6caa4eaebd980e6c02a0f386177ae8a1a54543376c9a75494f3fa155fe6382891610c676118ff565b60ff196007541660ff821617600755604051908152a1005b346102335760203660031901126102335760075460ff81161580610d4d575b61040157604051635c9ef5e960e11b8152336004820152906020908290602490829060081c6001600160a01b03165afa9081156103f6575f91610d1b575b50805f52600460205260ff60405f205416156103b3576004357f7aaab1170d028340f3bf66528f7f80d706b50286d5926385254ec14b19f4d91e5f80a3005b90506020813d602011610d45575b81610d3660209383611503565b81010312610233575181610cdc565b3d9150610d29565b50604051635c9ef5e960e11b8152336004820152602081602481600886901c6001600160a01b03165afa9081156103f6575f91610d9b575b505f52600360205260ff60405f20541615610c9e565b90506020813d602011610dc5575b81610db660209383611503565b81010312610233575182610d85565b3d9150610da9565b3461023357604036600319011261023357610de6611460565b336001600160a01b03821603610e025761052490600435612044565b63334bd91960e11b5f5260045ffd5b34610233575f366003190112610233576020601354604051908152f35b34610233575f3660031901126102335760075460ff81161580610f21575b61040157604051635c9ef5e960e11b8152336004820152906020908290602490829060081c6001600160a01b03165afa9081156103f6575f91610eef575b50600554600160401b811015610a6457610eb0610a168260018594016005556005611674565b9055805f52600460205260405f20600160ff198254161790557ffd009b812794f59c506a12c598e6023a4d68221c4694e3a3716696666b7ef7925f80a2005b90506020813d602011610f19575b81610f0a60209383611503565b81010312610233575181610e8a565b3d9150610efd565b50604051635c9ef5e960e11b8152336004820152602081602481600886901c6001600160a01b03165afa9081156103f6575f91610f6f575b505f52600360205260ff60405f20541615610e4c565b90506020813d602011610f99575b81610f8a60209383611503565b81010312610233575182610f59565b3d9150610f7d565b3461023357604036600319011261023357600435610fbd611460565b6104f36104ee835f525f602052600160405f20015490565b34610233575f3660031901126102335760405180602060055491828152019060055f527f036b6384b5eca791c62761152d0c79bb0604c104a5fb6f4eb0703f3154bb3db0905f5b818110611033576105e0856108e681870382611503565b825484526020909301926001928301920161101c565b34610233576020366003190112610233576004355f526015602052602060405f2054604051908152f35b34610233575f3660031901126102335760075460ff81161580611145575b61040157604051635c9ef5e960e11b8152336004820152906020908290602490829060081c6001600160a01b03165afa9081156103f6575f91611113575b506110d981611fbc565b805f52600460205260405f2060ff1981541690557f2cf2254cd0041d96e2ea24d41a1826c3a674ada00e3949841d35315e28b5cc0b5f80a2005b90506020813d60201161113d575b8161112e60209383611503565b810103126102335751816110cf565b3d9150611121565b50604051635c9ef5e960e11b8152336004820152602081602481600886901c6001600160a01b03165afa9081156103f6575f91611193575b505f52600360205260ff60405f20541615611091565b90506020813d6020116111bd575b816111ae60209383611503565b8101031261023357518261117d565b3d91506111a1565b346102335760203660031901126102335760206111ef6004355f525f602052600160405f20015490565b604051908152f35b346102335761120536611476565b61120d6118ff565b5f5b81811061121857005b60075460081c6001600160a01b03166020611234838587611631565b35602460405180948193630ea8b30560e11b835260048301525afa9081156103f6575f916112f1575b506001600160a01b031690813b15610233575f80926004604051809581936324b1ebb960e01b83525af19182156103f6576001926112e1575b506112ab6112a5828587611631565b35611f1b565b6112b6818486611631565b357fd97286496d0f8ee5279cd4ba64e875df64ed666efa833ac7a57b9757f7615aa65f80a20161120f565b5f6112eb91611503565b84611296565b611309915060203d8111610aaf57610aa18183611503565b8461125d565b60203660031901126102335761052461132661144a565b61133160085461194e565b611994565b34610233576020366003190112610233576004355f526004602052602060ff60405f2054166040519015158152f35b34610233576020366003190112610233576004355f526003602052602060ff60405f2054166040519015158152f35b34610233575f366003190112610233576020601254604051908152f35b34610233575f3660031901126102335760075460405160089190911c6001600160a01b03168152602090f35b34610233576020366003190112610233576004359063ffffffff60e01b821680920361023357602091635a05180f60e01b811490811561141f575b5015158152f35b637965db0b60e01b811491508115611439575b5083611418565b6301ffc9a760e01b14905083611432565b600435906001600160a01b038216820361023357565b602435906001600160a01b038216820361023357565b9060206003198301126102335760043567ffffffffffffffff811161023357826023820112156102335780600401359267ffffffffffffffff84116102335760248460051b83010111610233576024019190565b60206040818301928281528451809452019201905f5b8181106114ed5750505090565b82518452602093840193909201916001016114e0565b90601f8019910116810190811067ffffffffffffffff821117610a6457604052565b604051905f6011548060011c91600182169182156115fd575b6020841083146115e95783865285929081156115ca575060011461156b575b61156992500383611503565b565b5060115f90815290917f31ecc21a745e3968a04e9570e4425bc18fa8019c68028196b546d1669c200c685b8183106115ae5750509060206115699282010161155d565b6020919350806001915483858901015201910190918492611596565b6020925061156994915060ff191682840152151560051b82010161155d565b634e487b7160e01b5f52602260045260245ffd5b92607f169261153e565b602060409281835280519182918282860152018484015e5f828201840152601f01601f1916010190565b91908110156116415760051b0190565b634e487b7160e01b5f52603260045260245ffd5b9081602091031261023357516001600160a01b03811681036102335790565b8054821015611641575f5260205f2001905f90565b3d156116c3573d9067ffffffffffffffff8211610a6457604051916116b8601f8201601f191660200184611503565b82523d5f602084013e565b606090565b919082018092116116d557565b634e487b7160e01b5f52601160045260245ffd5b6116f161207e565b156118c357600c545f90805f526015602052807fa2dfaa3573b86004ec9d4d4abe5068d942579c59da4da8cd0d9e45e71a393bc1602060405f2054604051908152a25f52601660205260405f2054611747611525565b60075460405163105b313160e21b815260089190911c6001600160a01b03169190602081806117798560048301611607565b0381865afa9081156103f6575f9161188d575b50906117d692602092604051809581948293897fbe87ab0cc4cfb6984a291076abb2e105a586f976fa7be4e20ee07e61f9830cc15f80a36333c3789160e11b835260048301611607565b03915afa9081156103f6575f9161186e575b506001600160a01b031690813b15610233575f91602483926040519485938492631fac479f60e11b845260048401525af180156103f65761185b575b50600160ff19600d541617600d5563bbf81e004201908142116118475750601055565b634e487b7160e01b81526011600452602490fd5b61186791505f90611503565b5f5f611824565b611887915060203d602011610aaf57610aa18183611503565b5f6117e8565b9190506020823d6020116118bb575b816118a960209383611503565b810103126102335790516117d661178c565b3d915061189c565b60405162461bcd60e51b8152602060048201526014602482015273756e61626c6520746f2073746172742067616d6560601b6044820152606490fd5b335f9081527fad3228b676f7d3cd4284a5443f17f1962b36e491b30a40b2405849e597ba5fb5602052604090205460ff161561193757565b63e2517d3f60e01b5f52336004525f60245260445ffd5b5f8181526020818152604080832033845290915290205460ff16156119705750565b63e2517d3f60e01b5f523360045260245260445ffd5b5f1981146116d55760010190565b6009546040516322a26e8360e21b81526001600160a01b03928316600482018190525f93909260209183916024918391165afa9081156103f6575f91611ee0575b50611ea2576012543410611e5d5760ff600d5416611d75575b601354803402903482041434151715611d61576127109004803403348111611d4d57611a1c826014546116c8565b601455813403611be5575b5080611bb1575b5060018060a01b0360095416600c548084526016602052604084205490823b15611bad5790606485928360405195869485936306ab69fd60e01b8552600485015288602485015260448401525af18015611b8057908391611b98575b5050600c548252601560205260408220611aa48154611986565b9055600c5480835260156020526002604084205414611b8f575b60018060a01b03600a541690835260166020526040832054813b15611b8b578391604483926040519485938492633a68533b60e11b845260048401528760248401525af18015611b8057611b67575b5090604091600c54908183526015602052817f03dfbe1fcb4e2d61f3b4a0c93d8f814c92250618b3387f396cc9fc9fafe2c2036020868620548751908152a3815260156020522054600f5414611b5f57565b6115696116e9565b611b72838092611503565b611b7c575f611b0d565b5080fd5b6040513d85823e3d90fd5b8380fd5b42601055611abe565b81611ba291611503565b611b7c57815f611a8a565b8480fd5b7f8b33e5d3f2111dbe0069093632772b6795dfdaa7282cb1d39582c0ca4127edbb6020600c5492604051908152a25f611a2e565b6007546040516333c3789160e11b81526020600482018190526011602483015270686a6976656d696e642e77696e6e65727360781b604483015290918290606490829060081c6001600160a01b03165afa908115611d4257858084819482948391611d23575b506001600160a01b03165af1611c5f611689565b5015611cde57600954600c546001600160a01b0390911691823b15611cda57906044869283604051958694859363385ee0a160e01b8552600485015260248401525af18015611ccf57908491611cb6575b50611a27565b81611cc091611503565b611ccb57825f611cb0565b8280fd5b6040513d86823e3d90fd5b8580fd5b60405162461bcd60e51b815260206004820152601a60248201527f5072697a6520706f6f6c207472616e73666572206661696c65640000000000006044820152606490fd5b611d3c915060203d602011610aaf57610aa18183611503565b5f611c4b565b6040513d87823e3d90fd5b634e487b7160e01b84526011600452602484fd5b634e487b7160e01b83526011600452602483fd5b611d80600c54611986565b600c5560018060a01b03600a5416600f54813b15610233575f9160248392604051948593849263fac0ed3960e01b845260048401525af180156103f657611e48575b50600a54604051634e42ed1d60e01b815290602090829060049082906001600160a01b03165afa908115611b80578391611e16575b50600c5483526016602052604083205560ff19600d5416600d556119ee565b90506020813d602011611e40575b81611e3160209383611503565b8101031261023357515f611df7565b3d9150611e24565b611e559192505f90611503565b5f905f611dc2565b60405162461bcd60e51b815260206004820152601a60248201527f4d696e696d756d20656e74727920666565206e6f742073656e740000000000006044820152606490fd5b60405162461bcd60e51b8152602060048201526016602482015275706c6179657220616c726561647920696e2067616d6560501b6044820152606490fd5b90506020813d602011611f13575b81611efb60209383611503565b8101031261023357518015158103610233575f6119d5565b3d9150611eee565b5f5b60065480821015611fb75782611f34836006611674565b90549060031b1c14611f495750600101611f1d565b9091505f1981019081116116d557610a16611f68611f77926006611674565b90549060031b1c926006611674565b90556006548015611fa3575f1901611f90816006611674565b8154905f199060031b1b19169055600655565b634e487b7160e01b5f52603160045260245ffd5b505050565b5f5b60055480821015611fb75782611fd5836005611674565b90549060031b1c14611fea5750600101611fbe565b9091505f1981019081116116d557610a16612009612018926005611674565b90549060031b1c926005611674565b90556005548015611fa3575f1901612031816005611674565b8154905f199060031b1b19169055600555565b61204e8282612154565b918261205957505090565b5f9182526001602052604090912061207a916001600160a01b031690612228565b5090565b5f9061208f601054600e54906116c8565b42108015906120b2575b61209f57565b60ff600d5416156120ac57565b60019150565b50600c545f52601560205260405f2054600f541115612099565b5f818152602081815260408083206001600160a01b038616845290915290205460ff1661214e575f818152602081815260408083206001600160a01b0395909516808452949091528120805460ff19166001179055339291907f2f8788117e7eff1d82e926ec794901d17c78024a50270940304540a733656f0d9080a4600190565b50505f90565b5f818152602081815260408083206001600160a01b038616845290915290205460ff161561214e575f818152602081815260408083206001600160a01b0395909516808452949091528120805460ff19169055339291907ff6391f5c32d9c69d2a47ea670b442974b53935d1edc7fd64eb21e047a839171b9080a4600190565b6001810190825f528160205260405f2054155f14612221578054600160401b811015610a645761220e610a16826001879401855584611674565b905554915f5260205260405f2055600190565b5050505f90565b906001820191815f528260205260405f20548015155f146122d1575f1981018181116116d55782545f198101919082116116d55781810361229c575b50505080548015611fa3575f19019061227d8282611674565b8154905f199060031b1b19169055555f526020525f6040812055600190565b6122bc6122ac610a169386611674565b90549060031b1c92839286611674565b90555f528360205260405f20555f8080612264565b505050505f9056fea264697066735822122076e12dc2d951be87d0487386c8947801f8978c5e8d6ee299625522e80323f06d64736f6c63430008210033ad3228b676f7d3cd4284a5443f17f1962b36e491b30a40b2405849e597ba5fb5","linkReferences":{}},"methodIdentifiers":{"DEFAULT_ADMIN_ROLE()":"a217fddf","REGISTRY()":"06433b1b","RELAYER_ROLE()":"926d7d7f","addHubConnections(uint256[])":"6a820f8a","addInput()":"32f5910b","addRelayer(address)":"dd39f00d","allowAllInputs()":"f8b59b4e","canStart()":"ec309038","currentGame()":"60b663bb","enterRailcar(uint256)":"3f588f3e","enterUser(address)":"ebdecb6b","entryFee()":"072ea61c","gameHub()":"d1d27cf9","getRoleAdmin(bytes32)":"248a9ca3","getRoleMember(bytes32,uint256)":"9010d07c","getRoleMemberCount(bytes32)":"ca15c873","getRoleMembers(bytes32)":"a3246ad3","grantRole(bytes32,address)":"2f2ff15d","hasRole(bytes32,address)":"91d14854","hubInputs()":"2a88c442","hubOutputs()":"71688c98","inputActive(uint256)":"13f587bf","inputAllowed(uint256)":"07a4f85d","joinCountdownStartTime()":"9d81e528","joinGame()":"d4f77b1c","joinGameFor(address)":"1caedad5","playerCount(uint256)":"2566c9ea","playerLimit()":"f8bb7ec2","protocolFeeBps()":"35659fb8","railcarID(uint256)":"d5788f71","removeHubConnectionsTo(uint256[])":"222aa97a","removeInput()":"24b1ebb9","renounceRole(bytes32,address)":"36568abe","revokeRole(bytes32,address)":"d547741f","setAllowAllInputs(bool)":"502db6e4","setEntryFee(uint256)":"eb770d0c","setGameControllerAddress(address)":"89dfb5fb","setInputAllowed(uint256,bool)":"f5094852","setPlayerLimit(uint256)":"bf15e64c","setProtocolFeeBps(uint256)":"c0417e58","setTimeLimitToJoin(uint256)":"8a52c6e3","startGame()":"d65ab5f2","supportsInterface(bytes4)":"01ffc9a7","timeLimitToJoin()":"6f5f3bb6","totalProtocolFees()":"f526e39a","withdraw(address)":"51cff8d9"},"id":53}